{
  "_format": "hh-sol-artifact-1",
  "contractName": "BravoToken",
  "sourceName": "contracts/BravoToken.sol",
  "abi": [
    {
      "inputs": [],
      "stateMutability": "nonpayable",
      "type": "constructor"
    },
    {
      "anonymous": false,
      "inputs": [
        {
          "indexed": true,
          "internalType": "address",
          "name": "_owner",
          "type": "address"
        },
        {
          "indexed": true,
          "internalType": "address",
          "name": "_spender",
          "type": "address"
        },
        {
          "indexed": false,
          "internalType": "uint256",
          "name": "_value",
          "type": "uint256"
        }
      ],
      "name": "Approval",
      "type": "event"
    },
    {
      "anonymous": false,
      "inputs": [
        {
          "indexed": true,
          "internalType": "address",
          "name": "_owner",
          "type": "address"
        },
        {
          "indexed": true,
          "internalType": "address",
          "name": "_spender",
          "type": "address"
        },
        {
          "indexed": false,
          "internalType": "uint256",
          "name": "_value",
          "type": "uint256"
        }
      ],
      "name": "Transfer",
      "type": "event"
    },
    {
      "inputs": [
        {
          "internalType": "address",
          "name": "owner",
          "type": "address"
        },
        {
          "internalType": "address",
          "name": "spender",
          "type": "address"
        }
      ],
      "name": "allowance",
      "outputs": [
        {
          "internalType": "uint256",
          "name": "",
          "type": "uint256"
        }
      ],
      "stateMutability": "view",
      "type": "function"
    },
    {
      "inputs": [
        {
          "internalType": "address",
          "name": "spender",
          "type": "address"
        },
        {
          "internalType": "uint256",
          "name": "amount",
          "type": "uint256"
        }
      ],
      "name": "approve",
      "outputs": [
        {
          "internalType": "bool",
          "name": "",
          "type": "bool"
        }
      ],
      "stateMutability": "nonpayable",
      "type": "function"
    },
    {
      "inputs": [
        {
          "internalType": "address",
          "name": "account",
          "type": "address"
        }
      ],
      "name": "balanceOf",
      "outputs": [
        {
          "internalType": "uint256",
          "name": "",
          "type": "uint256"
        }
      ],
      "stateMutability": "view",
      "type": "function"
    },
    {
      "inputs": [
        {
          "internalType": "address",
          "name": "account",
          "type": "address"
        },
        {
          "internalType": "uint256",
          "name": "amount",
          "type": "uint256"
        }
      ],
      "name": "burn",
      "outputs": [],
      "stateMutability": "nonpayable",
      "type": "function"
    },
    {
      "inputs": [],
      "name": "decimals",
      "outputs": [
        {
          "internalType": "uint8",
          "name": "",
          "type": "uint8"
        }
      ],
      "stateMutability": "view",
      "type": "function"
    },
    {
      "inputs": [
        {
          "internalType": "address",
          "name": "spender",
          "type": "address"
        },
        {
          "internalType": "uint256",
          "name": "substractedValue",
          "type": "uint256"
        }
      ],
      "name": "decreaseAllowance",
      "outputs": [
        {
          "internalType": "bool",
          "name": "",
          "type": "bool"
        }
      ],
      "stateMutability": "nonpayable",
      "type": "function"
    },
    {
      "inputs": [
        {
          "internalType": "address",
          "name": "spender",
          "type": "address"
        },
        {
          "internalType": "uint256",
          "name": "addedValue",
          "type": "uint256"
        }
      ],
      "name": "increaseAllowance",
      "outputs": [
        {
          "internalType": "bool",
          "name": "",
          "type": "bool"
        }
      ],
      "stateMutability": "nonpayable",
      "type": "function"
    },
    {
      "inputs": [
        {
          "internalType": "uint256",
          "name": "amount",
          "type": "uint256"
        }
      ],
      "name": "mint",
      "outputs": [],
      "stateMutability": "nonpayable",
      "type": "function"
    },
    {
      "inputs": [],
      "name": "name",
      "outputs": [
        {
          "internalType": "string",
          "name": "",
          "type": "string"
        }
      ],
      "stateMutability": "view",
      "type": "function"
    },
    {
      "inputs": [],
      "name": "symbol",
      "outputs": [
        {
          "internalType": "string",
          "name": "",
          "type": "string"
        }
      ],
      "stateMutability": "view",
      "type": "function"
    },
    {
      "inputs": [],
      "name": "totalSuply",
      "outputs": [
        {
          "internalType": "uint256",
          "name": "",
          "type": "uint256"
        }
      ],
      "stateMutability": "view",
      "type": "function"
    },
    {
      "inputs": [
        {
          "internalType": "address",
          "name": "recipient",
          "type": "address"
        },
        {
          "internalType": "uint256",
          "name": "amount",
          "type": "uint256"
        }
      ],
      "name": "transfer",
      "outputs": [
        {
          "internalType": "bool",
          "name": "",
          "type": "bool"
        }
      ],
      "stateMutability": "nonpayable",
      "type": "function"
    },
    {
      "inputs": [
        {
          "internalType": "address",
          "name": "sender",
          "type": "address"
        },
        {
          "internalType": "address",
          "name": "recipient",
          "type": "address"
        },
        {
          "internalType": "uint256",
          "name": "amount",
          "type": "uint256"
        }
      ],
      "name": "transferFrom",
      "outputs": [
        {
          "internalType": "bool",
          "name": "",
          "type": "bool"
        }
      ],
      "stateMutability": "nonpayable",
      "type": "function"
    }
  ],
  "bytecode": "0x60806040523480156200001157600080fd5b506040518060400160405280600581526020017f427261766f0000000000000000000000000000000000000000000000000000008152506040518060400160405280600381526020017f4252560000000000000000000000000000000000000000000000000000000000815250816003908051906020019062000096929190620000b8565b508060049080519060200190620000af929190620000b8565b505050620001cd565b828054620000c69062000168565b90600052602060002090601f016020900481019282620000ea576000855562000136565b82601f106200010557805160ff191683800117855562000136565b8280016001018555821562000136579182015b828111156200013557825182559160200191906001019062000118565b5b50905062000145919062000149565b5090565b5b80821115620001645760008160009055506001016200014a565b5090565b600060028204905060018216806200018157607f821691505b602082108114156200019857620001976200019e565b5b50919050565b7f4e487b7100000000000000000000000000000000000000000000000000000000600052602260045260246000fd5b61184880620001dd6000396000f3fe608060405234801561001057600080fd5b50600436106100cf5760003560e01c806395d89b411161008c578063a2a9679911610066578063a2a9679914610226578063a457c2d714610244578063a9059cbb14610274578063dd62ed3e146102a4576100cf565b806395d89b41146101d05780639dc29fac146101ee578063a0712d681461020a576100cf565b806306fdde03146100d4578063095ea7b3146100f257806323b872dd14610122578063313ce56714610152578063395093511461017057806370a08231146101a0575b600080fd5b6100dc6102d4565b6040516100e9919061147d565b60405180910390f35b61010c60048036038101906101079190610fe7565b610362565b6040516101199190611462565b60405180910390f35b61013c60048036038101906101379190610f98565b610379565b6040516101499190611462565b60405180910390f35b61015a610463565b60405161016791906115fa565b60405180910390f35b61018a60048036038101906101859190610fe7565b61046c565b6040516101979190611462565b60405180910390f35b6101ba60048036038101906101b59190610f33565b61050a565b6040516101c791906115df565b60405180910390f35b6101d8610552565b6040516101e5919061147d565b60405180910390f35b61020860048036038101906102039190610fe7565b6105e0565b005b610224600480360381019061021f9190611023565b6105ee565b005b61022e6105fb565b60405161023b91906115df565b60405180910390f35b61025e60048036038101906102599190610fe7565b610601565b60405161026b9190611462565b60405180910390f35b61028e60048036038101906102899190610fe7565b6106de565b60405161029b9190611462565b60405180910390f35b6102be60048036038101906102b99190610f5c565b6106f5565b6040516102cb91906115df565b60405180910390f35b600380546102e190611743565b80601f016020809104026020016040519081016040528092919081815260200182805461030d90611743565b801561035a5780601f1061032f5761010080835404028352916020019161035a565b820191906000526020600020905b81548152906001019060200180831161033d57829003601f168201915b505050505081565b600061036f33848461077c565b6001905092915050565b6000610386848484610947565b6000600160008673ffffffffffffffffffffffffffffffffffffffff1673ffffffffffffffffffffffffffffffffffffffff16815260200190815260200160002060003373ffffffffffffffffffffffffffffffffffffffff1673ffffffffffffffffffffffffffffffffffffffff1681526020019081526020016000205490508281101561044a576040517f08c379a0000000000000000000000000000000000000000000000000000000008152600401610441906115bf565b60405180910390fd5b610457853385840361077c565b60019150509392505050565b60006024905090565b6000610500338484600160003373ffffffffffffffffffffffffffffffffffffffff1673ffffffffffffffffffffffffffffffffffffffff16815260200190815260200160002060008873ffffffffffffffffffffffffffffffffffffffff1673ffffffffffffffffffffffffffffffffffffffff168152602001908152602001600020546104fb9190611631565b61077c565b6001905092915050565b60008060008373ffffffffffffffffffffffffffffffffffffffff1673ffffffffffffffffffffffffffffffffffffffff168152602001908152602001600020549050919050565b6004805461055f90611743565b80601f016020809104026020016040519081016040528092919081815260200182805461058b90611743565b80156105d85780601f106105ad576101008083540402835291602001916105d8565b820191906000526020600020905b8154815290600101906020018083116105bb57829003601f168201915b505050505081565b6105ea8282610bc8565b5050565b6105f83382610d9f565b50565b60025481565b600080600160003373ffffffffffffffffffffffffffffffffffffffff1673ffffffffffffffffffffffffffffffffffffffff16815260200190815260200160002060008573ffffffffffffffffffffffffffffffffffffffff1673ffffffffffffffffffffffffffffffffffffffff168152602001908152602001600020549050828110156106c6576040517f08c379a00000000000000000000000000000000000000000000000000000000081526004016106bd906114bf565b60405180910390fd5b6106d3338585840361077c565b600191505092915050565b60006106eb338484610947565b6001905092915050565b6000600160008473ffffffffffffffffffffffffffffffffffffffff1673ffffffffffffffffffffffffffffffffffffffff16815260200190815260200160002060008373ffffffffffffffffffffffffffffffffffffffff1673ffffffffffffffffffffffffffffffffffffffff16815260200190815260200160002054905092915050565b600073ffffffffffffffffffffffffffffffffffffffff168373ffffffffffffffffffffffffffffffffffffffff1614156107ec576040517f08c379a00000000000000000000000000000000000000000000000000000000081526004016107e39061157f565b60405180910390fd5b600073ffffffffffffffffffffffffffffffffffffffff168273ffffffffffffffffffffffffffffffffffffffff16141561085c576040517f08c379a00000000000000000000000000000000000000000000000000000000081526004016108539061155f565b60405180910390fd5b80600160008573ffffffffffffffffffffffffffffffffffffffff1673ffffffffffffffffffffffffffffffffffffffff16815260200190815260200160002060008473ffffffffffffffffffffffffffffffffffffffff1673ffffffffffffffffffffffffffffffffffffffff168152602001908152602001600020819055508173ffffffffffffffffffffffffffffffffffffffff168373ffffffffffffffffffffffffffffffffffffffff167f8c5be1e5ebec7d5bd14f71427d1e84f3dd0314c0f7b2291e5b200ac8c7c3b9258360405161093a91906115df565b60405180910390a3505050565b600073ffffffffffffffffffffffffffffffffffffffff168373ffffffffffffffffffffffffffffffffffffffff1614156109b7576040517f08c379a00000000000000000000000000000000000000000000000000000000081526004016109ae9061159f565b60405180910390fd5b600073ffffffffffffffffffffffffffffffffffffffff168273ffffffffffffffffffffffffffffffffffffffff161415610a27576040517f08c379a0000000000000000000000000000000000000000000000000000000008152600401610a1e906114df565b60405180910390fd5b610a32838383610eff565b60008060008573ffffffffffffffffffffffffffffffffffffffff1673ffffffffffffffffffffffffffffffffffffffff16815260200190815260200160002054905081811015610ab8576040517f08c379a0000000000000000000000000000000000000000000000000000000008152600401610aaf9061153f565b60405180910390fd5b8181036000808673ffffffffffffffffffffffffffffffffffffffff1673ffffffffffffffffffffffffffffffffffffffff16815260200190815260200160002081905550816000808573ffffffffffffffffffffffffffffffffffffffff1673ffffffffffffffffffffffffffffffffffffffff1681526020019081526020016000206000828254610b4b9190611631565b925050819055508273ffffffffffffffffffffffffffffffffffffffff168473ffffffffffffffffffffffffffffffffffffffff167fddf252ad1be2c89b69c2b068fc378daa952ba7f163c4a11628f55a4df523b3ef84604051610baf91906115df565b60405180910390a3610bc2848484610f04565b50505050565b600073ffffffffffffffffffffffffffffffffffffffff168273ffffffffffffffffffffffffffffffffffffffff161415610c38576040517f08c379a0000000000000000000000000000000000000000000000000000000008152600401610c2f906114ff565b60405180910390fd5b610c4482600083610eff565b60008060008473ffffffffffffffffffffffffffffffffffffffff1673ffffffffffffffffffffffffffffffffffffffff16815260200190815260200160002054905081811015610cca576040517f08c379a0000000000000000000000000000000000000000000000000000000008152600401610cc19061151f565b60405180910390fd5b8181036000808573ffffffffffffffffffffffffffffffffffffffff1673ffffffffffffffffffffffffffffffffffffffff168152602001908152602001600020819055508160026000828254610d219190611687565b92505081905550600073ffffffffffffffffffffffffffffffffffffffff168373ffffffffffffffffffffffffffffffffffffffff167fddf252ad1be2c89b69c2b068fc378daa952ba7f163c4a11628f55a4df523b3ef84604051610d8691906115df565b60405180910390a3610d9a83600084610f04565b505050565b600073ffffffffffffffffffffffffffffffffffffffff168273ffffffffffffffffffffffffffffffffffffffff161415610e0f576040517f08c379a0000000000000000000000000000000000000000000000000000000008152600401610e069061149f565b60405180910390fd5b610e1b60008383610eff565b8060026000828254610e2d9190611631565b92505081905550806000808473ffffffffffffffffffffffffffffffffffffffff1673ffffffffffffffffffffffffffffffffffffffff1681526020019081526020016000206000828254610e829190611631565b925050819055508173ffffffffffffffffffffffffffffffffffffffff16600073ffffffffffffffffffffffffffffffffffffffff167fddf252ad1be2c89b69c2b068fc378daa952ba7f163c4a11628f55a4df523b3ef83604051610ee791906115df565b60405180910390a3610efb60008383610f04565b5050565b505050565b505050565b600081359050610f18816117e4565b92915050565b600081359050610f2d816117fb565b92915050565b600060208284031215610f4557600080fd5b6000610f5384828501610f09565b91505092915050565b60008060408385031215610f6f57600080fd5b6000610f7d85828601610f09565b9250506020610f8e85828601610f09565b9150509250929050565b600080600060608486031215610fad57600080fd5b6000610fbb86828701610f09565b9350506020610fcc86828701610f09565b9250506040610fdd86828701610f1e565b9150509250925092565b60008060408385031215610ffa57600080fd5b600061100885828601610f09565b925050602061101985828601610f1e565b9150509250929050565b60006020828403121561103557600080fd5b600061104384828501610f1e565b91505092915050565b611055816116cd565b82525050565b600061106682611615565b6110708185611620565b9350611080818560208601611710565b611089816117d3565b840191505092915050565b60006110a1602183611620565b91507f796f752063616e6e6f74206d696e7420746f2061207a65726f2061646472657360008301527f73000000000000000000000000000000000000000000000000000000000000006020830152604082019050919050565b6000611107601b83611620565b91507f64656372656173656420616d6f756e742062656c6f77207a65726f00000000006000830152602082019050919050565b6000611147602583611620565b91507f796f752063616e6e6f74207472616e7366657220746f2061207a65726f20616460008301527f64726573730000000000000000000000000000000000000000000000000000006020830152604082019050919050565b60006111ad602383611620565b91507f796f752063616e6e6f74206275726e2066726f6d2061207a65726f206164647260008301527f65737300000000000000000000000000000000000000000000000000000000006020830152604082019050919050565b6000611213602283611620565b91507f796f7520646f6e74206861766520656e75676820746f6b656e7320746f20627560008301527f726e0000000000000000000000000000000000000000000000000000000000006020830152604082019050919050565b6000611279602083611620565b91507f207472616e7366657220616d6f756e7420657863656564732062616c616e63656000830152602082019050919050565b60006112b9602483611620565b91507f796f752063616e6e6f7420617070726f766520746f2061207a65726f2061646460008301527f72657373000000000000000000000000000000000000000000000000000000006020830152604082019050919050565b600061131f602683611620565b91507f796f752063616e6e6f7420617070726f76652066726f6d2061207a65726f206160008301527f64647265737300000000000000000000000000000000000000000000000000006020830152604082019050919050565b6000611385602783611620565b91507f796f752063616e6e6f74207472616e736665722066726f6d2061207a65726f2060008301527f61646472657373000000000000000000000000000000000000000000000000006020830152604082019050919050565b60006113eb602283611620565b91507f7472616e7366657220616d6f756e74206578636565647320616c6c6f77616e6360008301527f65730000000000000000000000000000000000000000000000000000000000006020830152604082019050919050565b61144d816116f9565b82525050565b61145c81611703565b82525050565b6000602082019050611477600083018461104c565b92915050565b60006020820190508181036000830152611497818461105b565b905092915050565b600060208201905081810360008301526114b881611094565b9050919050565b600060208201905081810360008301526114d8816110fa565b9050919050565b600060208201905081810360008301526114f88161113a565b9050919050565b60006020820190508181036000830152611518816111a0565b9050919050565b6000602082019050818103600083015261153881611206565b9050919050565b600060208201905081810360008301526115588161126c565b9050919050565b60006020820190508181036000830152611578816112ac565b9050919050565b6000602082019050818103600083015261159881611312565b9050919050565b600060208201905081810360008301526115b881611378565b9050919050565b600060208201905081810360008301526115d8816113de565b9050919050565b60006020820190506115f46000830184611444565b92915050565b600060208201905061160f6000830184611453565b92915050565b600081519050919050565b600082825260208201905092915050565b600061163c826116f9565b9150611647836116f9565b9250827fffffffffffffffffffffffffffffffffffffffffffffffffffffffffffffffff0382111561167c5761167b611775565b5b828201905092915050565b6000611692826116f9565b915061169d836116f9565b9250828210156116b0576116af611775565b5b828203905092915050565b60006116c6826116d9565b9050919050565b60008115159050919050565b600073ffffffffffffffffffffffffffffffffffffffff82169050919050565b6000819050919050565b600060ff82169050919050565b60005b8381101561172e578082015181840152602081019050611713565b8381111561173d576000848401525b50505050565b6000600282049050600182168061175b57607f821691505b6020821081141561176f5761176e6117a4565b5b50919050565b7f4e487b7100000000000000000000000000000000000000000000000000000000600052601160045260246000fd5b7f4e487b7100000000000000000000000000000000000000000000000000000000600052602260045260246000fd5b6000601f19601f8301169050919050565b6117ed816116bb565b81146117f857600080fd5b50565b611804816116f9565b811461180f57600080fd5b5056fea26469706673582212208b4dd556c471fa131360e6ba8925ca44fbead8b25f35a9156377162444bbb92064736f6c63430008000033",
  "linkReferences": {},
  "deployedLinkReferences": {}
}