{
  "_format": "hh-sol-artifact-1",
  "contractName": "Bravo",
  "sourceName": "contracts/ERC20.sol",
  "abi": [
    {
      "inputs": [
        {
          "internalType": "string",
          "name": "_name",
          "type": "string"
        },
        {
          "internalType": "string",
          "name": "_symbol",
          "type": "string"
        }
      ],
      "stateMutability": "nonpayable",
      "type": "constructor"
    },
    {
      "anonymous": false,
      "inputs": [
        {
          "indexed": true,
          "internalType": "address",
          "name": "_owner",
          "type": "address"
        },
        {
          "indexed": true,
          "internalType": "address",
          "name": "_spender",
          "type": "address"
        },
        {
          "indexed": false,
          "internalType": "uint256",
          "name": "_value",
          "type": "uint256"
        }
      ],
      "name": "Approval",
      "type": "event"
    },
    {
      "anonymous": false,
      "inputs": [
        {
          "indexed": true,
          "internalType": "address",
          "name": "_owner",
          "type": "address"
        },
        {
          "indexed": true,
          "internalType": "address",
          "name": "_spender",
          "type": "address"
        },
        {
          "indexed": false,
          "internalType": "uint256",
          "name": "_value",
          "type": "uint256"
        }
      ],
      "name": "Transfer",
      "type": "event"
    },
    {
      "inputs": [
        {
          "internalType": "address",
          "name": "owner",
          "type": "address"
        },
        {
          "internalType": "address",
          "name": "spender",
          "type": "address"
        }
      ],
      "name": "allowance",
      "outputs": [
        {
          "internalType": "uint256",
          "name": "",
          "type": "uint256"
        }
      ],
      "stateMutability": "view",
      "type": "function"
    },
    {
      "inputs": [
        {
          "internalType": "address",
          "name": "spender",
          "type": "address"
        },
        {
          "internalType": "uint256",
          "name": "amount",
          "type": "uint256"
        }
      ],
      "name": "approve",
      "outputs": [
        {
          "internalType": "bool",
          "name": "",
          "type": "bool"
        }
      ],
      "stateMutability": "nonpayable",
      "type": "function"
    },
    {
      "inputs": [
        {
          "internalType": "address",
          "name": "account",
          "type": "address"
        }
      ],
      "name": "balanceOf",
      "outputs": [
        {
          "internalType": "uint256",
          "name": "",
          "type": "uint256"
        }
      ],
      "stateMutability": "view",
      "type": "function"
    },
    {
      "inputs": [],
      "name": "decimals",
      "outputs": [
        {
          "internalType": "uint8",
          "name": "",
          "type": "uint8"
        }
      ],
      "stateMutability": "view",
      "type": "function"
    },
    {
      "inputs": [
        {
          "internalType": "address",
          "name": "spender",
          "type": "address"
        },
        {
          "internalType": "uint256",
          "name": "substractedValue",
          "type": "uint256"
        }
      ],
      "name": "decreaseAllowance",
      "outputs": [
        {
          "internalType": "bool",
          "name": "",
          "type": "bool"
        }
      ],
      "stateMutability": "nonpayable",
      "type": "function"
    },
    {
      "inputs": [
        {
          "internalType": "address",
          "name": "spender",
          "type": "address"
        },
        {
          "internalType": "uint256",
          "name": "addedValue",
          "type": "uint256"
        }
      ],
      "name": "increaseAllowance",
      "outputs": [
        {
          "internalType": "bool",
          "name": "",
          "type": "bool"
        }
      ],
      "stateMutability": "nonpayable",
      "type": "function"
    },
    {
      "inputs": [],
      "name": "name",
      "outputs": [
        {
          "internalType": "string",
          "name": "",
          "type": "string"
        }
      ],
      "stateMutability": "view",
      "type": "function"
    },
    {
      "inputs": [],
      "name": "symbol",
      "outputs": [
        {
          "internalType": "string",
          "name": "",
          "type": "string"
        }
      ],
      "stateMutability": "view",
      "type": "function"
    },
    {
      "inputs": [],
      "name": "totalSuply",
      "outputs": [
        {
          "internalType": "uint256",
          "name": "",
          "type": "uint256"
        }
      ],
      "stateMutability": "view",
      "type": "function"
    },
    {
      "inputs": [
        {
          "internalType": "address",
          "name": "recipient",
          "type": "address"
        },
        {
          "internalType": "uint256",
          "name": "amount",
          "type": "uint256"
        }
      ],
      "name": "transfer",
      "outputs": [
        {
          "internalType": "bool",
          "name": "",
          "type": "bool"
        }
      ],
      "stateMutability": "nonpayable",
      "type": "function"
    },
    {
      "inputs": [
        {
          "internalType": "address",
          "name": "sender",
          "type": "address"
        },
        {
          "internalType": "address",
          "name": "recipient",
          "type": "address"
        },
        {
          "internalType": "uint256",
          "name": "amount",
          "type": "uint256"
        }
      ],
      "name": "transferFrom",
      "outputs": [
        {
          "internalType": "bool",
          "name": "",
          "type": "bool"
        }
      ],
      "stateMutability": "nonpayable",
      "type": "function"
    }
  ],
  "bytecode": "0x60806040523480156200001157600080fd5b50604051620015f0380380620015f0833981810160405281019062000037919062000193565b81600390805190602001906200004f92919062000071565b5080600490805190602001906200006892919062000071565b50505062000337565b8280546200007f90620002a3565b90600052602060002090601f016020900481019282620000a35760008555620000ef565b82601f10620000be57805160ff1916838001178555620000ef565b82800160010185558215620000ef579182015b82811115620000ee578251825591602001919060010190620000d1565b5b509050620000fe919062000102565b5090565b5b808211156200011d57600081600090555060010162000103565b5090565b60006200013862000132846200023a565b62000206565b9050828152602081018484840111156200015157600080fd5b6200015e8482856200026d565b509392505050565b600082601f8301126200017857600080fd5b81516200018a84826020860162000121565b91505092915050565b60008060408385031215620001a757600080fd5b600083015167ffffffffffffffff811115620001c257600080fd5b620001d08582860162000166565b925050602083015167ffffffffffffffff811115620001ee57600080fd5b620001fc8582860162000166565b9150509250929050565b6000604051905081810181811067ffffffffffffffff8211171562000230576200022f62000308565b5b8060405250919050565b600067ffffffffffffffff82111562000258576200025762000308565b5b601f19601f8301169050602081019050919050565b60005b838110156200028d57808201518184015260208101905062000270565b838111156200029d576000848401525b50505050565b60006002820490506001821680620002bc57607f821691505b60208210811415620002d357620002d2620002d9565b5b50919050565b7f4e487b7100000000000000000000000000000000000000000000000000000000600052602260045260246000fd5b7f4e487b7100000000000000000000000000000000000000000000000000000000600052604160045260246000fd5b6112a980620003476000396000f3fe608060405234801561001057600080fd5b50600436106100a95760003560e01c806370a082311161007157806370a082311461017a57806395d89b41146101aa578063a2a96799146101c8578063a457c2d7146101e6578063a9059cbb14610216578063dd62ed3e14610246576100a9565b806306fdde03146100ae578063095ea7b3146100cc57806323b872dd146100fc578063313ce5671461012c578063395093511461014a575b600080fd5b6100b6610276565b6040516100c39190610f72565b60405180910390f35b6100e660048036038101906100e19190610c37565b610304565b6040516100f39190610f57565b60405180910390f35b61011660048036038101906101119190610be8565b61031b565b6040516101239190610f57565b60405180910390f35b610134610405565b604051610141919061108f565b60405180910390f35b610164600480360381019061015f9190610c37565b61040e565b6040516101719190610f57565b60405180910390f35b610194600480360381019061018f9190610b83565b6104ac565b6040516101a19190611074565b60405180910390f35b6101b26104f4565b6040516101bf9190610f72565b60405180910390f35b6101d0610582565b6040516101dd9190611074565b60405180910390f35b61020060048036038101906101fb9190610c37565b610588565b60405161020d9190610f57565b60405180910390f35b610230600480360381019061022b9190610c37565b610665565b60405161023d9190610f57565b60405180910390f35b610260600480360381019061025b9190610bac565b61067c565b60405161026d9190611074565b60405180910390f35b60038054610283906111a4565b80601f01602080910402602001604051908101604052809291908181526020018280546102af906111a4565b80156102fc5780601f106102d1576101008083540402835291602001916102fc565b820191906000526020600020905b8154815290600101906020018083116102df57829003601f168201915b505050505081565b6000610311338484610703565b6001905092915050565b60006103288484846108ce565b6000600160008673ffffffffffffffffffffffffffffffffffffffff1673ffffffffffffffffffffffffffffffffffffffff16815260200190815260200160002060003373ffffffffffffffffffffffffffffffffffffffff1673ffffffffffffffffffffffffffffffffffffffff168152602001908152602001600020549050828110156103ec576040517f08c379a00000000000000000000000000000000000000000000000000000000081526004016103e390611054565b60405180910390fd5b6103f98533858403610703565b60019150509392505050565b60006024905090565b60006104a2338484600160003373ffffffffffffffffffffffffffffffffffffffff1673ffffffffffffffffffffffffffffffffffffffff16815260200190815260200160002060008873ffffffffffffffffffffffffffffffffffffffff1673ffffffffffffffffffffffffffffffffffffffff1681526020019081526020016000205461049d91906110c6565b610703565b6001905092915050565b60008060008373ffffffffffffffffffffffffffffffffffffffff1673ffffffffffffffffffffffffffffffffffffffff168152602001908152602001600020549050919050565b60048054610501906111a4565b80601f016020809104026020016040519081016040528092919081815260200182805461052d906111a4565b801561057a5780601f1061054f5761010080835404028352916020019161057a565b820191906000526020600020905b81548152906001019060200180831161055d57829003601f168201915b505050505081565b60025481565b600080600160003373ffffffffffffffffffffffffffffffffffffffff1673ffffffffffffffffffffffffffffffffffffffff16815260200190815260200160002060008573ffffffffffffffffffffffffffffffffffffffff1673ffffffffffffffffffffffffffffffffffffffff1681526020019081526020016000205490508281101561064d576040517f08c379a000000000000000000000000000000000000000000000000000000000815260040161064490610f94565b60405180910390fd5b61065a3385858403610703565b600191505092915050565b60006106723384846108ce565b6001905092915050565b6000600160008473ffffffffffffffffffffffffffffffffffffffff1673ffffffffffffffffffffffffffffffffffffffff16815260200190815260200160002060008373ffffffffffffffffffffffffffffffffffffffff1673ffffffffffffffffffffffffffffffffffffffff16815260200190815260200160002054905092915050565b600073ffffffffffffffffffffffffffffffffffffffff168373ffffffffffffffffffffffffffffffffffffffff161415610773576040517f08c379a000000000000000000000000000000000000000000000000000000000815260040161076a90611014565b60405180910390fd5b600073ffffffffffffffffffffffffffffffffffffffff168273ffffffffffffffffffffffffffffffffffffffff1614156107e3576040517f08c379a00000000000000000000000000000000000000000000000000000000081526004016107da90610ff4565b60405180910390fd5b80600160008573ffffffffffffffffffffffffffffffffffffffff1673ffffffffffffffffffffffffffffffffffffffff16815260200190815260200160002060008473ffffffffffffffffffffffffffffffffffffffff1673ffffffffffffffffffffffffffffffffffffffff168152602001908152602001600020819055508173ffffffffffffffffffffffffffffffffffffffff168373ffffffffffffffffffffffffffffffffffffffff167f8c5be1e5ebec7d5bd14f71427d1e84f3dd0314c0f7b2291e5b200ac8c7c3b925836040516108c19190611074565b60405180910390a3505050565b600073ffffffffffffffffffffffffffffffffffffffff168373ffffffffffffffffffffffffffffffffffffffff16141561093e576040517f08c379a000000000000000000000000000000000000000000000000000000000815260040161093590611034565b60405180910390fd5b600073ffffffffffffffffffffffffffffffffffffffff168273ffffffffffffffffffffffffffffffffffffffff1614156109ae576040517f08c379a00000000000000000000000000000000000000000000000000000000081526004016109a590610fb4565b60405180910390fd5b6109b9838383610b4f565b60008060008573ffffffffffffffffffffffffffffffffffffffff1673ffffffffffffffffffffffffffffffffffffffff16815260200190815260200160002054905081811015610a3f576040517f08c379a0000000000000000000000000000000000000000000000000000000008152600401610a3690610fd4565b60405180910390fd5b8181036000808673ffffffffffffffffffffffffffffffffffffffff1673ffffffffffffffffffffffffffffffffffffffff16815260200190815260200160002081905550816000808573ffffffffffffffffffffffffffffffffffffffff1673ffffffffffffffffffffffffffffffffffffffff1681526020019081526020016000206000828254610ad291906110c6565b925050819055508273ffffffffffffffffffffffffffffffffffffffff168473ffffffffffffffffffffffffffffffffffffffff167fddf252ad1be2c89b69c2b068fc378daa952ba7f163c4a11628f55a4df523b3ef84604051610b369190611074565b60405180910390a3610b49848484610b54565b50505050565b505050565b505050565b600081359050610b6881611245565b92915050565b600081359050610b7d8161125c565b92915050565b600060208284031215610b9557600080fd5b6000610ba384828501610b59565b91505092915050565b60008060408385031215610bbf57600080fd5b6000610bcd85828601610b59565b9250506020610bde85828601610b59565b9150509250929050565b600080600060608486031215610bfd57600080fd5b6000610c0b86828701610b59565b9350506020610c1c86828701610b59565b9250506040610c2d86828701610b6e565b9150509250925092565b60008060408385031215610c4a57600080fd5b6000610c5885828601610b59565b9250506020610c6985828601610b6e565b9150509250929050565b610c7c8161112e565b82525050565b6000610c8d826110aa565b610c9781856110b5565b9350610ca7818560208601611171565b610cb081611234565b840191505092915050565b6000610cc8601b836110b5565b91507f64656372656173656420616d6f756e742062656c6f77207a65726f00000000006000830152602082019050919050565b6000610d086025836110b5565b91507f796f752063616e6e6f74207472616e7366657220746f2061207a65726f20616460008301527f64726573730000000000000000000000000000000000000000000000000000006020830152604082019050919050565b6000610d6e6020836110b5565b91507f207472616e7366657220616d6f756e7420657863656564732062616c616e63656000830152602082019050919050565b6000610dae6024836110b5565b91507f796f752063616e6e6f7420617070726f766520746f2061207a65726f2061646460008301527f72657373000000000000000000000000000000000000000000000000000000006020830152604082019050919050565b6000610e146026836110b5565b91507f796f752063616e6e6f7420617070726f76652066726f6d2061207a65726f206160008301527f64647265737300000000000000000000000000000000000000000000000000006020830152604082019050919050565b6000610e7a6027836110b5565b91507f796f752063616e6e6f74207472616e736665722066726f6d2061207a65726f2060008301527f61646472657373000000000000000000000000000000000000000000000000006020830152604082019050919050565b6000610ee06022836110b5565b91507f7472616e7366657220616d6f756e74206578636565647320616c6c6f77616e6360008301527f65730000000000000000000000000000000000000000000000000000000000006020830152604082019050919050565b610f428161115a565b82525050565b610f5181611164565b82525050565b6000602082019050610f6c6000830184610c73565b92915050565b60006020820190508181036000830152610f8c8184610c82565b905092915050565b60006020820190508181036000830152610fad81610cbb565b9050919050565b60006020820190508181036000830152610fcd81610cfb565b9050919050565b60006020820190508181036000830152610fed81610d61565b9050919050565b6000602082019050818103600083015261100d81610da1565b9050919050565b6000602082019050818103600083015261102d81610e07565b9050919050565b6000602082019050818103600083015261104d81610e6d565b9050919050565b6000602082019050818103600083015261106d81610ed3565b9050919050565b60006020820190506110896000830184610f39565b92915050565b60006020820190506110a46000830184610f48565b92915050565b600081519050919050565b600082825260208201905092915050565b60006110d18261115a565b91506110dc8361115a565b9250827fffffffffffffffffffffffffffffffffffffffffffffffffffffffffffffffff03821115611111576111106111d6565b5b828201905092915050565b60006111278261113a565b9050919050565b60008115159050919050565b600073ffffffffffffffffffffffffffffffffffffffff82169050919050565b6000819050919050565b600060ff82169050919050565b60005b8381101561118f578082015181840152602081019050611174565b8381111561119e576000848401525b50505050565b600060028204905060018216806111bc57607f821691505b602082108114156111d0576111cf611205565b5b50919050565b7f4e487b7100000000000000000000000000000000000000000000000000000000600052601160045260246000fd5b7f4e487b7100000000000000000000000000000000000000000000000000000000600052602260045260246000fd5b6000601f19601f8301169050919050565b61124e8161111c565b811461125957600080fd5b50565b6112658161115a565b811461127057600080fd5b5056fea264697066735822122089996194b9441b601fa3231674622cdeff25e78778449bc17c0137bcfe33be5e64736f6c63430008000033",
  "linkReferences": {},
  "deployedLinkReferences": {}
}